{
  "contractName": "Contract",
  "abi": [
    {
      "constant": true,
      "inputs": [
        {
          "name": "",
          "type": "address"
        }
      ],
      "name": "address2FileHash",
      "outputs": [
        {
          "name": "",
          "type": "bytes32"
        }
      ],
      "payable": false,
      "stateMutability": "view",
      "type": "function"
    },
    {
      "constant": true,
      "inputs": [
        {
          "name": "",
          "type": "bytes32"
        }
      ],
      "name": "fileHash2Address",
      "outputs": [
        {
          "name": "",
          "type": "address"
        }
      ],
      "payable": false,
      "stateMutability": "view",
      "type": "function"
    },
    {
      "inputs": [],
      "payable": false,
      "stateMutability": "nonpayable",
      "type": "constructor"
    },
    {
      "constant": false,
      "inputs": [
        {
          "name": "newHash",
          "type": "bytes32"
        }
      ],
      "name": "AddFileHash",
      "outputs": [
        {
          "name": "",
          "type": "bytes32"
        }
      ],
      "payable": false,
      "stateMutability": "nonpayable",
      "type": "function"
    },
    {
      "constant": true,
      "inputs": [
        {
          "name": "queryHash",
          "type": "bytes32"
        }
      ],
      "name": "CheckFileProvider",
      "outputs": [
        {
          "name": "",
          "type": "address"
        }
      ],
      "payable": false,
      "stateMutability": "view",
      "type": "function"
    }
  ],
  "bytecode": "0x608060405234801561001057600080fd5b50336000806101000a81548173ffffffffffffffffffffffffffffffffffffffff021916908373ffffffffffffffffffffffffffffffffffffffff16021790555061038b806100606000396000f300608060405260043610610062576000357c0100000000000000000000000000000000000000000000000000000000900463ffffffff1680634633e726146100675780636a555409146100c6578063a477fa3114610137578063f21344dd14610184575b600080fd5b34801561007357600080fd5b506100a8600480360381019080803573ffffffffffffffffffffffffffffffffffffffff1690602001909291905050506101f5565b60405180826000191660001916815260200191505060405180910390f35b3480156100d257600080fd5b506100f5600480360381019080803560001916906020019092919050505061020d565b604051808273ffffffffffffffffffffffffffffffffffffffff1673ffffffffffffffffffffffffffffffffffffffff16815260200191505060405180910390f35b34801561014357600080fd5b506101666004803603810190808035600019169060200190929190505050610240565b60405180826000191660001916815260200191505060405180910390f35b34801561019057600080fd5b506101b360048036038101908080356000191690602001909291905050506102f9565b604051808273ffffffffffffffffffffffffffffffffffffffff1673ffffffffffffffffffffffffffffffffffffffff16815260200191505060405180910390f35b60016020528060005260406000206000915090505481565b60026020528060005260406000206000915054906101000a900473ffffffffffffffffffffffffffffffffffffffff1681565b600081600160003373ffffffffffffffffffffffffffffffffffffffff1673ffffffffffffffffffffffffffffffffffffffff16815260200190815260200160002081600019169055503360026000846000191660001916815260200190815260200160002060006101000a81548173ffffffffffffffffffffffffffffffffffffffff021916908373ffffffffffffffffffffffffffffffffffffffff1602179055506102f06000600161033e565b50819050919050565b600060026000836000191660001916815260200190815260200160002060009054906101000a900473ffffffffffffffffffffffffffffffffffffffff169050919050565b600080828401905083811015151561035557600080fd5b80915050929150505600a165627a7a72305820c84ed394de86ae753364adb7949a09a4b2b5d196e707fd2312823c18378af12f0029",
  "source": "pragma solidity ^0.4.23;\n\nimport \"./safemath.sol\";\n\ncontract Contract {\n    //Importing safemath\n    using SafeMath for uint256;\n    //Set Owner of Contract\n    address owner;\n    //bytes32 public hashes;\n    \n\n    //Bi-Directional mapping \n    // This allows for the value to find the key and vise versa \n    //https://ethereum.stackexchange.com/questions/4272/getting-key-from-solidity-mapping-by-value\n    mapping (address => bytes32) public address2FileHash;\n    mapping (bytes32 => address) public fileHash2Address;\n\n    struct sha256Hash {\n        bytes32 part1;\n        bytes32 part2;\n    }\n\n\n    constructor() public {\n        owner = msg.sender;\n    }\n\n    function AddFileHash(bytes32 newHash) public returns (bytes32){\n        address2FileHash[msg.sender] = newHash;\n        fileHash2Address[newHash] = msg.sender;\n        SafeMath.add(0, 1);\n        return newHash;\n    }\n\n    function CheckFileProvider(bytes32 queryHash) public view  returns (address) {\n        return fileHash2Address[queryHash];\n    }\n\n}",
  "sourcePath": "/home/eva/Documents/consenSysCourse/File_Hash_Check/contracts/Contract.sol",
  "compiler": {
    "name": "solc",
    "version": "0.4.24+commit.e67f0147.Emscripten.clang"
  },
  "schemaVersion": "2.0.1",
  "updatedAt": "2018-08-20T09:29:42.404Z"
}