{
  "contractName": "DankHash",
  "abi": [
    {
      "constant": true,
      "inputs": [
        {
          "name": "",
          "type": "bytes32"
        }
      ],
      "name": "hashInfo",
      "outputs": [
        {
          "name": "name",
          "type": "string"
        },
        {
          "name": "url",
          "type": "string"
        },
        {
          "name": "version",
          "type": "uint256"
        },
        {
          "name": "date",
          "type": "uint256"
        },
        {
          "name": "hashUploader",
          "type": "address"
        }
      ],
      "payable": false,
      "stateMutability": "view",
      "type": "function"
    },
    {
      "constant": true,
      "inputs": [],
      "name": "stopped",
      "outputs": [
        {
          "name": "",
          "type": "bool"
        }
      ],
      "payable": false,
      "stateMutability": "view",
      "type": "function"
    },
    {
      "inputs": [],
      "payable": false,
      "stateMutability": "nonpayable",
      "type": "constructor"
    },
    {
      "anonymous": false,
      "inputs": [
        {
          "indexed": false,
          "name": "newHash",
          "type": "bytes32"
        }
      ],
      "name": "addHash",
      "type": "event"
    },
    {
      "constant": false,
      "inputs": [
        {
          "name": "_a",
          "type": "address"
        }
      ],
      "name": "addAdmin",
      "outputs": [
        {
          "name": "",
          "type": "bool"
        }
      ],
      "payable": false,
      "stateMutability": "nonpayable",
      "type": "function"
    },
    {
      "constant": false,
      "inputs": [],
      "name": "kill",
      "outputs": [],
      "payable": false,
      "stateMutability": "nonpayable",
      "type": "function"
    },
    {
      "constant": false,
      "inputs": [],
      "name": "switchStopped",
      "outputs": [],
      "payable": false,
      "stateMutability": "nonpayable",
      "type": "function"
    },
    {
      "constant": false,
      "inputs": [
        {
          "name": "newHash",
          "type": "bytes32"
        },
        {
          "name": "name",
          "type": "string"
        },
        {
          "name": "url",
          "type": "string"
        },
        {
          "name": "version",
          "type": "uint256"
        },
        {
          "name": "date",
          "type": "uint256"
        }
      ],
      "name": "AddFileHash",
      "outputs": [
        {
          "name": "",
          "type": "bool"
        }
      ],
      "payable": false,
      "stateMutability": "nonpayable",
      "type": "function"
    },
    {
      "constant": true,
      "inputs": [
        {
          "name": "queryHash",
          "type": "bytes32"
        }
      ],
      "name": "CheckFileProvider",
      "outputs": [
        {
          "name": "name",
          "type": "string"
        },
        {
          "name": "url",
          "type": "string"
        },
        {
          "name": "version",
          "type": "uint256"
        },
        {
          "name": "date",
          "type": "uint256"
        },
        {
          "name": "hashUploader",
          "type": "address"
        }
      ],
      "payable": false,
      "stateMutability": "view",
      "type": "function"
    }
  ],
  "bytecode": "0x60806040526000600160006101000a81548160ff02191690831515021790555034801561002b57600080fd5b5060016000803373ffffffffffffffffffffffffffffffffffffffff1673ffffffffffffffffffffffffffffffffffffffff16815260200190815260200160002060006101000a81548160ff021916908315150217905550610e9a806100926000396000f300608060405260043610610083576000357c0100000000000000000000000000000000000000000000000000000000900463ffffffff16806341c0e1b51461008857806349c188411461009f5780636a762b6f146100b6578063704802751461020d57806375f12b2114610268578063cafcac9b14610297578063f21344dd14610380575b600080fd5b34801561009457600080fd5b5061009d6104d7565b005b3480156100ab57600080fd5b506100b46105b7565b005b3480156100c257600080fd5b506100e560048036038101908080356000191690602001909291905050506106aa565b6040518080602001806020018681526020018581526020018473ffffffffffffffffffffffffffffffffffffffff1673ffffffffffffffffffffffffffffffffffffffff168152602001838103835288818151815260200191508051906020019080838360005b8381101561016757808201518184015260208101905061014c565b50505050905090810190601f1680156101945780820380516001836020036101000a031916815260200191505b50838103825287818151815260200191508051906020019080838360005b838110156101cd5780820151818401526020810190506101b2565b50505050905090810190601f1680156101fa5780820380516001836020036101000a031916815260200191505b5097505050505050505060405180910390f35b34801561021957600080fd5b5061024e600480360381019080803573ffffffffffffffffffffffffffffffffffffffff169060200190929190505050610830565b604051808215151515815260200191505060405180910390f35b34801561027457600080fd5b5061027d610959565b604051808215151515815260200191505060405180910390f35b3480156102a357600080fd5b506103666004803603810190808035600019169060200190929190803590602001908201803590602001908080601f0160208091040260200160405190810160405280939291908181526020018383808284378201915050505050509192919290803590602001908201803590602001908080601f0160208091040260200160405190810160405280939291908181526020018383808284378201915050505050509192919290803590602001909291908035906020019092919050505061096c565b604051808215151515815260200191505060405180910390f35b34801561038c57600080fd5b506103af6004803603810190808035600019169060200190929190505050610bb4565b6040518080602001806020018681526020018581526020018473ffffffffffffffffffffffffffffffffffffffff1673ffffffffffffffffffffffffffffffffffffffff168152602001838103835288818151815260200191508051906020019080838360005b83811015610431578082015181840152602081019050610416565b50505050905090810190601f16801561045e5780820380516001836020036101000a031916815260200191505b50838103825287818151815260200191508051906020019080838360005b8381101561049757808201518184015260208101905061047c565b50505050905090810190601f1680156104c45780820380516001836020036101000a031916815260200191505b5097505050505050505060405180910390f35b600115156000803373ffffffffffffffffffffffffffffffffffffffff1673ffffffffffffffffffffffffffffffffffffffff16815260200190815260200160002060009054906101000a900460ff16151514151561059e576040517f08c379a00000000000000000000000000000000000000000000000000000000081526004018080602001828103825260118152602001807f41646472657373206e6f742061646d696e00000000000000000000000000000081525060200191505060405180910390fd5b3373ffffffffffffffffffffffffffffffffffffffff16ff5b600115156000803373ffffffffffffffffffffffffffffffffffffffff1673ffffffffffffffffffffffffffffffffffffffff16815260200190815260200160002060009054906101000a900460ff16151514151561067e576040517f08c379a00000000000000000000000000000000000000000000000000000000081526004018080602001828103825260118152602001807f41646472657373206e6f742061646d696e00000000000000000000000000000081525060200191505060405180910390fd5b600160009054906101000a900460ff1615600160006101000a81548160ff021916908315150217905550565b6002602052806000526040600020600091509050806000018054600181600116156101000203166002900480601f0160208091040260200160405190810160405280929190818152602001828054600181600116156101000203166002900480156107565780601f1061072b57610100808354040283529160200191610756565b820191906000526020600020905b81548152906001019060200180831161073957829003601f168201915b505050505090806001018054600181600116156101000203166002900480601f0160208091040260200160405190810160405280929190818152602001828054600181600116156101000203166002900480156107f45780601f106107c9576101008083540402835291602001916107f4565b820191906000526020600020905b8154815290600101906020018083116107d757829003601f168201915b5050505050908060020154908060030154908060040160009054906101000a900473ffffffffffffffffffffffffffffffffffffffff16905085565b6000600115156000803373ffffffffffffffffffffffffffffffffffffffff1673ffffffffffffffffffffffffffffffffffffffff16815260200190815260200160002060009054906101000a900460ff1615151415156108f9576040517f08c379a00000000000000000000000000000000000000000000000000000000081526004018080602001828103825260118152602001807f41646472657373206e6f742061646d696e00000000000000000000000000000081525060200191505060405180910390fd5b60016000808473ffffffffffffffffffffffffffffffffffffffff1673ffffffffffffffffffffffffffffffffffffffff16815260200190815260200160002060006101000a81548160ff02191690831515021790555060019050919050565b600160009054906101000a900460ff1681565b60007f43e08ad19960ec40728cdaddc8ff238f7a2caac4989ccf84b04621bcbcc163bb8660405180826000191660001916815260200191505060405180910390a1600073ffffffffffffffffffffffffffffffffffffffff1660026000886000191660001916815260200190815260200160002060040160009054906101000a900473ffffffffffffffffffffffffffffffffffffffff1673ffffffffffffffffffffffffffffffffffffffff161480610a8f57503373ffffffffffffffffffffffffffffffffffffffff1660026000886000191660001916815260200190815260200160002060040160009054906101000a900473ffffffffffffffffffffffffffffffffffffffff1673ffffffffffffffffffffffffffffffffffffffff16145b15610ba657846002600088600019166000191681526020019081526020016000206000019080519060200190610ac6929190610dc9565b50836002600088600019166000191681526020019081526020016000206001019080519060200190610af9929190610dc9565b50826002600088600019166000191681526020019081526020016000206002018190555081600260008860001916600019168152602001908152602001600020600301819055503360026000886000191660001916815260200190815260200160002060040160006101000a81548173ffffffffffffffffffffffffffffffffffffffff021916908373ffffffffffffffffffffffffffffffffffffffff16021790555060019050610bab565b600090505b95945050505050565b60608060008060006002600087600019166000191681526020019081526020016000206000018054600181600116156101000203166002900480601f016020809104026020016040519081016040528092919081815260200182805460018160011615610100020316600290048015610c6e5780601f10610c4357610100808354040283529160200191610c6e565b820191906000526020600020905b815481529060010190602001808311610c5157829003601f168201915b505050505094506002600087600019166000191681526020019081526020016000206001018054600181600116156101000203166002900480601f016020809104026020016040519081016040528092919081815260200182805460018160011615610100020316600290048015610d275780601f10610cfc57610100808354040283529160200191610d27565b820191906000526020600020905b815481529060010190602001808311610d0a57829003601f168201915b5050505050935060026000876000191660001916815260200190815260200160002060020154925060026000876000191660001916815260200190815260200160002060030154915060026000876000191660001916815260200190815260200160002060040160009054906101000a900473ffffffffffffffffffffffffffffffffffffffff16905084848484849450945094509450945091939590929450565b828054600181600116156101000203166002900490600052602060002090601f016020900481019282601f10610e0a57805160ff1916838001178555610e38565b82800160010185558215610e38579182015b82811115610e37578251825591602001919060010190610e1c565b5b509050610e459190610e49565b5090565b610e6b91905b80821115610e67576000816000905550600101610e4f565b5090565b905600a165627a7a723058203b9963470c06427a36a5a92957bfa0950058c0873bb964cb5b209c79df01f2ed0029",
  "source": "pragma solidity ^0.4.23;\n\nimport \"./safemath.sol\";\n\n/** @title DankHash - Archive of sha256 hashs to sensitive files that's immutable. Now there's one decentralised resource that can be accessed to make sure youu're downloading the files you want */\ncontract DankHash {\n    //Importing safemath\n    using SafeMath for uint256;\n    //Set Owner of Contract\n    mapping(address => bool)admins;\n\n    constructor() public {\n        admins[msg.sender] = true;\n    }\n\n    modifier onlyAdmin{\n        require(admins[msg.sender]==true,\"Address not admin\");\n        _;\n    }\n\n    function addAdmin (address _a) public onlyAdmin returns (bool){\n        admins[_a] = true;\n        return true;\n    }\n\n    function kill() public onlyAdmin{\n        selfdestruct(msg.sender);\n    }\n\n    bool public stopped = false;\n\n    modifier stopInEmergency{require(!stopped,\"\"); _;}\n    modifier onlyInEmergency{require(stopped,\"\"); _;}\n   \n    function switchStopped() public onlyAdmin {\n        stopped = !stopped; //toggle stopped so true = false and false = true\n    }\n\n    mapping (bytes32 => HashDesc) public hashInfo;\n\n    struct HashDesc {\n        string name;\n        string url;\n        uint version; \n        uint256 date; //https://ethereum.stackexchange.com/questions/32173/how-to-handle-dates-in-solidity-and-web3/32179\n        address hashUploader;\n    }\n\n    event addHash (bytes32 newHash);\n\n     /** @dev Calculates a rectangle's surface and perimeter.\n      * @param newHash Width of the rectangle.\n      * @param name Height of the rectangle.\n      * @return s The calculated surface.\n      * @return p The calculated perimeter.\n      */\n    function AddFileHash(bytes32 newHash, string name, string url, uint version, uint date) public returns (bool){\n        emit addHash(newHash);\n        //Check if hash is new or be the same owner\n        if (hashInfo[newHash].hashUploader == address(0x0) || hashInfo[newHash].hashUploader == msg.sender){ \n            hashInfo[newHash].name = name;\n            hashInfo[newHash].url = url;\n            hashInfo[newHash].version = version;\n            hashInfo[newHash].date = date;\n            hashInfo[newHash].hashUploader = msg.sender;\n            return true;\n        } else {\n            return false;\n        }\n        \n    }\n\n    function CheckFileProvider(bytes32 queryHash) public view  returns (string name, string url, uint version, uint date, address hashUploader) {\n        name = hashInfo[queryHash].name;\n        url = hashInfo[queryHash].url;\n        version = hashInfo[queryHash].version;\n        date = hashInfo[queryHash].date;\n        hashUploader = hashInfo[queryHash].hashUploader;\n\n        return(name, url, version, date, hashUploader);\n    }\n\n}",
  "sourcePath": "/home/eva/Documents/consenSysCourse/File_Hash_Check/contracts/DankHash.sol",
  "compiler": {
    "name": "solc",
    "version": "0.4.24+commit.e67f0147.Emscripten.clang"
  },
  "schemaVersion": "2.0.1",
  "updatedAt": "2018-08-26T04:43:49.564Z"
}