{
  "contractName": "DankHash",
  "abi": [
    {
      "constant": true,
      "inputs": [
        {
          "name": "",
          "type": "address"
        }
      ],
      "name": "address2FileHash",
      "outputs": [
        {
          "name": "",
          "type": "bytes32"
        }
      ],
      "payable": false,
      "stateMutability": "view",
      "type": "function"
    },
    {
      "constant": true,
      "inputs": [
        {
          "name": "",
          "type": "bytes32"
        }
      ],
      "name": "fileHash2Address",
      "outputs": [
        {
          "name": "",
          "type": "address"
        }
      ],
      "payable": false,
      "stateMutability": "view",
      "type": "function"
    },
    {
      "constant": true,
      "inputs": [
        {
          "name": "",
          "type": "bytes32"
        }
      ],
      "name": "hashInfo",
      "outputs": [
        {
          "name": "name",
          "type": "string"
        },
        {
          "name": "url",
          "type": "string"
        },
        {
          "name": "version",
          "type": "uint256"
        },
        {
          "name": "date",
          "type": "uint256"
        },
        {
          "name": "hashUploader",
          "type": "address"
        }
      ],
      "payable": false,
      "stateMutability": "view",
      "type": "function"
    },
    {
      "inputs": [],
      "payable": false,
      "stateMutability": "nonpayable",
      "type": "constructor"
    },
    {
      "anonymous": false,
      "inputs": [
        {
          "indexed": false,
          "name": "newHash",
          "type": "bytes32"
        }
      ],
      "name": "addHash",
      "type": "event"
    },
    {
      "constant": false,
      "inputs": [
        {
          "name": "newHash",
          "type": "bytes32"
        }
      ],
      "name": "AddFileHash",
      "outputs": [
        {
          "name": "",
          "type": "uint256"
        }
      ],
      "payable": false,
      "stateMutability": "nonpayable",
      "type": "function"
    },
    {
      "constant": true,
      "inputs": [
        {
          "name": "queryHash",
          "type": "bytes32"
        }
      ],
      "name": "CheckFileProvider",
      "outputs": [
        {
          "name": "name",
          "type": "string"
        },
        {
          "name": "url",
          "type": "string"
        },
        {
          "name": "version",
          "type": "uint256"
        },
        {
          "name": "date",
          "type": "uint256"
        },
        {
          "name": "hashUploader",
          "type": "address"
        }
      ],
      "payable": false,
      "stateMutability": "view",
      "type": "function"
    }
  ],
  "bytecode": "0x608060405234801561001057600080fd5b50336000806101000a81548173ffffffffffffffffffffffffffffffffffffffff021916908373ffffffffffffffffffffffffffffffffffffffff160217905550610936806100606000396000f30060806040526004361061006d576000357c0100000000000000000000000000000000000000000000000000000000900463ffffffff1680634633e726146100725780636a555409146100d15780636a762b6f14610142578063a477fa3114610299578063f21344dd146102de575b600080fd5b34801561007e57600080fd5b506100b3600480360381019080803573ffffffffffffffffffffffffffffffffffffffff169060200190929190505050610435565b60405180826000191660001916815260200191505060405180910390f35b3480156100dd57600080fd5b50610100600480360381019080803560001916906020019092919050505061044d565b604051808273ffffffffffffffffffffffffffffffffffffffff1673ffffffffffffffffffffffffffffffffffffffff16815260200191505060405180910390f35b34801561014e57600080fd5b506101716004803603810190808035600019169060200190929190505050610480565b6040518080602001806020018681526020018581526020018473ffffffffffffffffffffffffffffffffffffffff1673ffffffffffffffffffffffffffffffffffffffff168152602001838103835288818151815260200191508051906020019080838360005b838110156101f35780820151818401526020810190506101d8565b50505050905090810190601f1680156102205780820380516001836020036101000a031916815260200191505b50838103825287818151815260200191508051906020019080838360005b8381101561025957808201518184015260208101905061023e565b50505050905090810190601f1680156102865780820380516001836020036101000a031916815260200191505b5097505050505050505060405180910390f35b3480156102a557600080fd5b506102c86004803603810190808035600019169060200190929190505050610606565b6040518082815260200191505060405180910390f35b3480156102ea57600080fd5b5061030d60048036038101908080356000191690602001909291905050506106f5565b6040518080602001806020018681526020018581526020018473ffffffffffffffffffffffffffffffffffffffff1673ffffffffffffffffffffffffffffffffffffffff168152602001838103835288818151815260200191508051906020019080838360005b8381101561038f578082015181840152602081019050610374565b50505050905090810190601f1680156103bc5780820380516001836020036101000a031916815260200191505b50838103825287818151815260200191508051906020019080838360005b838110156103f55780820151818401526020810190506103da565b50505050905090810190601f1680156104225780820380516001836020036101000a031916815260200191505b5097505050505050505060405180910390f35b60016020528060005260406000206000915090505481565b60026020528060005260406000206000915054906101000a900473ffffffffffffffffffffffffffffffffffffffff1681565b6003602052806000526040600020600091509050806000018054600181600116156101000203166002900480601f01602080910402602001604051908101604052809291908181526020018280546001816001161561010002031660029004801561052c5780601f106105015761010080835404028352916020019161052c565b820191906000526020600020905b81548152906001019060200180831161050f57829003601f168201915b505050505090806001018054600181600116156101000203166002900480601f0160208091040260200160405190810160405280929190818152602001828054600181600116156101000203166002900480156105ca5780601f1061059f576101008083540402835291602001916105ca565b820191906000526020600020905b8154815290600101906020018083116105ad57829003601f168201915b5050505050908060020154908060030154908060040160009054906101000a900473ffffffffffffffffffffffffffffffffffffffff16905085565b60007f43e08ad19960ec40728cdaddc8ff238f7a2caac4989ccf84b04621bcbcc163bb8260405180826000191660001916815260200191505060405180910390a181600160003373ffffffffffffffffffffffffffffffffffffffff1673ffffffffffffffffffffffffffffffffffffffff16815260200190815260200160002081600019169055503360026000846000191660001916815260200190815260200160002060006101000a81548173ffffffffffffffffffffffffffffffffffffffff021916908373ffffffffffffffffffffffffffffffffffffffff160217905550602060ff169050919050565b60608060008060006003600087600019166000191681526020019081526020016000206000018054600181600116156101000203166002900480601f0160208091040260200160405190810160405280929190818152602001828054600181600116156101000203166002900480156107af5780601f10610784576101008083540402835291602001916107af565b820191906000526020600020905b81548152906001019060200180831161079257829003601f168201915b505050505094506003600087600019166000191681526020019081526020016000206001018054600181600116156101000203166002900480601f0160208091040260200160405190810160405280929190818152602001828054600181600116156101000203166002900480156108685780601f1061083d57610100808354040283529160200191610868565b820191906000526020600020905b81548152906001019060200180831161084b57829003601f168201915b5050505050935060036000876000191660001916815260200190815260200160002060020154925060036000876000191660001916815260200190815260200160002060030154915060036000876000191660001916815260200190815260200160002060040160009054906101000a900473ffffffffffffffffffffffffffffffffffffffff169050848484848494509450945094509450919395909294505600a165627a7a723058205cd72c44f584fab997e4dfd8f59aa193c3d5c2dca51faf5670a47039f139e2e90029",
  "source": "pragma solidity ^0.4.23;\n\nimport \"./safemath.sol\";\n\ncontract DankHash {\n    //Importing safemath\n    using SafeMath for uint256;\n    //Set Owner of Contract\n    address owner;\n    //bytes32 public hashes;\n    \n\n    //Bi-Directional mapping \n    // This allows for the value to find the key and vise versa \n    //https://ethereum.stackexchange.com/questions/4272/getting-key-from-solidity-mapping-by-value\n    mapping (address => bytes32) public address2FileHash;\n    mapping (bytes32 => address) public fileHash2Address;\n    mapping (bytes32 => HashDesc) public hashInfo;\n\n    struct HashDesc {\n        string name;\n        string url;\n        uint version; \n        uint256 date; //https://ethereum.stackexchange.com/questions/32173/how-to-handle-dates-in-solidity-and-web3/32179\n        address hashUploader;\n    }\n\n    event addHash (bytes32 newHash);\n\n    //Checking for hash size is impossible as all values are a vaild hash\n    // modifier checkHashSize (bytes32 hash){\n    //     require(hash.length == 64, \"Input is not correct length\");\n    //     _;\n    // }\n\n    constructor() public {\n        owner = msg.sender;\n    }\n    //function AddFileHash(bytes32 newHash) public checkHashSize(newHash) returns (bytes32){\n    function AddFileHash(bytes32 newHash) public returns (uint){\n        emit addHash(newHash);\n        address2FileHash[msg.sender] = newHash;\n        fileHash2Address[newHash] = msg.sender;\n        return newHash.length;\n    }\n\n    function CheckFileProvider(bytes32 queryHash) public view  returns (string name, string url, uint version, uint date, address hashUploader) {\n        name = hashInfo[queryHash].name;\n        url = hashInfo[queryHash].url;\n        version = hashInfo[queryHash].version;\n        date = hashInfo[queryHash].date;\n        hashUploader = hashInfo[queryHash].hashUploader;\n\n        return(name, url, version, date, hashUploader);\n    }\n\n}",
  "sourcePath": "/home/eva/Documents/consenSysCourse/File_Hash_Check/contracts/DankHash.sol",
  "compiler": {
    "name": "solc",
    "version": "0.4.24+commit.e67f0147.Emscripten.clang"
  },
  "schemaVersion": "2.0.1",
  "updatedAt": "2018-08-23T10:55:09.158Z"
}